{
  "contractName": "DriverRegistration",
  "abi": [
    {
      "anonymous": false,
      "inputs": [
        {
          "indexed": true,
          "internalType": "address",
          "name": "previousOwner",
          "type": "address"
        },
        {
          "indexed": true,
          "internalType": "address",
          "name": "newOwner",
          "type": "address"
        }
      ],
      "name": "OwnershipTransferred",
      "type": "event"
    },
    {
      "anonymous": false,
      "inputs": [
        {
          "indexed": false,
          "internalType": "string",
          "name": "_name",
          "type": "string"
        },
        {
          "indexed": false,
          "internalType": "string",
          "name": "_drivingLicesnse",
          "type": "string"
        },
        {
          "indexed": false,
          "internalType": "string",
          "name": "_parentName",
          "type": "string"
        },
        {
          "indexed": false,
          "internalType": "string",
          "name": "_permanentAddress",
          "type": "string"
        },
        {
          "indexed": false,
          "internalType": "enum DriverRegistration.Gender",
          "name": "_gender",
          "type": "uint8"
        },
        {
          "indexed": false,
          "internalType": "enum DriverRegistration.VehicleType",
          "name": "_vehicleType",
          "type": "uint8"
        },
        {
          "indexed": false,
          "internalType": "uint256",
          "name": "_dob",
          "type": "uint256"
        },
        {
          "indexed": false,
          "internalType": "uint256",
          "name": "_validUntil",
          "type": "uint256"
        }
      ],
      "name": "driverRegistered",
      "type": "event"
    },
    {
      "inputs": [
        {
          "internalType": "uint256",
          "name": "",
          "type": "uint256"
        }
      ],
      "name": "drivers",
      "outputs": [
        {
          "internalType": "string",
          "name": "name",
          "type": "string"
        },
        {
          "internalType": "string",
          "name": "drivingLicense",
          "type": "string"
        },
        {
          "internalType": "string",
          "name": "parentName",
          "type": "string"
        },
        {
          "internalType": "string",
          "name": "permanentAddress",
          "type": "string"
        },
        {
          "internalType": "enum DriverRegistration.Gender",
          "name": "gender",
          "type": "uint8"
        },
        {
          "internalType": "enum DriverRegistration.VehicleType",
          "name": "vehicleType",
          "type": "uint8"
        },
        {
          "internalType": "uint256",
          "name": "dob",
          "type": "uint256"
        },
        {
          "internalType": "uint256",
          "name": "validUntil",
          "type": "uint256"
        }
      ],
      "stateMutability": "view",
      "type": "function",
      "constant": true
    },
    {
      "inputs": [],
      "name": "owner",
      "outputs": [
        {
          "internalType": "address",
          "name": "",
          "type": "address"
        }
      ],
      "stateMutability": "view",
      "type": "function",
      "constant": true
    },
    {
      "inputs": [],
      "name": "renounceOwnership",
      "outputs": [],
      "stateMutability": "nonpayable",
      "type": "function"
    },
    {
      "inputs": [
        {
          "internalType": "address",
          "name": "newOwner",
          "type": "address"
        }
      ],
      "name": "transferOwnership",
      "outputs": [],
      "stateMutability": "nonpayable",
      "type": "function"
    },
    {
      "inputs": [
        {
          "internalType": "string",
          "name": "_name",
          "type": "string"
        },
        {
          "internalType": "string",
          "name": "_drivingLicense",
          "type": "string"
        },
        {
          "internalType": "string",
          "name": "_parentName",
          "type": "string"
        },
        {
          "internalType": "string",
          "name": "_permanentAddress",
          "type": "string"
        },
        {
          "internalType": "enum DriverRegistration.Gender",
          "name": "_gender",
          "type": "uint8"
        },
        {
          "internalType": "enum DriverRegistration.VehicleType",
          "name": "_vehicleType",
          "type": "uint8"
        },
        {
          "internalType": "uint256",
          "name": "_dob",
          "type": "uint256"
        }
      ],
      "name": "register",
      "outputs": [],
      "stateMutability": "nonpayable",
      "type": "function"
    },
    {
      "inputs": [
        {
          "internalType": "uint256",
          "name": "_id",
          "type": "uint256"
        }
      ],
      "name": "getDriver",
      "outputs": [
        {
          "components": [
            {
              "internalType": "string",
              "name": "name",
              "type": "string"
            },
            {
              "internalType": "string",
              "name": "drivingLicense",
              "type": "string"
            },
            {
              "internalType": "string",
              "name": "parentName",
              "type": "string"
            },
            {
              "internalType": "string",
              "name": "permanentAddress",
              "type": "string"
            },
            {
              "internalType": "enum DriverRegistration.Gender",
              "name": "gender",
              "type": "uint8"
            },
            {
              "internalType": "enum DriverRegistration.VehicleType",
              "name": "vehicleType",
              "type": "uint8"
            },
            {
              "internalType": "uint256",
              "name": "dob",
              "type": "uint256"
            },
            {
              "internalType": "uint256",
              "name": "validUntil",
              "type": "uint256"
            }
          ],
          "internalType": "struct DriverRegistration.Driver",
          "name": "",
          "type": "tuple"
        }
      ],
      "stateMutability": "view",
      "type": "function",
      "constant": true
    }
  ],
  "bytecode": "0x608060405234801561001057600080fd5b5061002d61002261003260201b60201c565b61003a60201b60201c565b6100fe565b600033905090565b60008060009054906101000a900473ffffffffffffffffffffffffffffffffffffffff169050816000806101000a81548173ffffffffffffffffffffffffffffffffffffffff021916908373ffffffffffffffffffffffffffffffffffffffff1602179055508173ffffffffffffffffffffffffffffffffffffffff168173ffffffffffffffffffffffffffffffffffffffff167f8be0079c531659141344cd1fd0a4f28419497f9722a3daafe3b4186f6b6457e060405160405180910390a35050565b6116e48061010d6000396000f3fe608060405234801561001057600080fd5b50600436106100625760003560e01c80632290b19114610067578063715018a6146100975780638da5cb5b146100a1578063e8f244ee146100bf578063f2fde38b146100db578063f79e5450146100f7575b600080fd5b610081600480360381019061007c9190611007565b61012e565b60405161008e919061136b565b60405180910390f35b61009f6104fb565b005b6100a961050f565b6040516100b69190611276565b60405180910390f35b6100d960048036038101906100d49190610f09565b610538565b005b6100f560048036038101906100f09190610ee0565b61086c565b005b610111600480360381019061010c9190611007565b6108f0565b604051610125989796959493929190611291565b60405180910390f35b610136610ccc565b60018281548110610170577f4e487b7100000000000000000000000000000000000000000000000000000000600052603260045260246000fd5b90600052602060002090600702016040518061010001604052908160008201805461019a90611539565b80601f01602080910402602001604051908101604052809291908181526020018280546101c690611539565b80156102135780601f106101e857610100808354040283529160200191610213565b820191906000526020600020905b8154815290600101906020018083116101f657829003601f168201915b5050505050815260200160018201805461022c90611539565b80601f016020809104026020016040519081016040528092919081815260200182805461025890611539565b80156102a55780601f1061027a576101008083540402835291602001916102a5565b820191906000526020600020905b81548152906001019060200180831161028857829003601f168201915b505050505081526020016002820180546102be90611539565b80601f01602080910402602001604051908101604052809291908181526020018280546102ea90611539565b80156103375780601f1061030c57610100808354040283529160200191610337565b820191906000526020600020905b81548152906001019060200180831161031a57829003601f168201915b5050505050815260200160038201805461035090611539565b80601f016020809104026020016040519081016040528092919081815260200182805461037c90611539565b80156103c95780601f1061039e576101008083540402835291602001916103c9565b820191906000526020600020905b8154815290600101906020018083116103ac57829003601f168201915b505050505081526020016004820160009054906101000a900460ff16600281111561041d577f4e487b7100000000000000000000000000000000000000000000000000000000600052602160045260246000fd5b6002811115610455577f4e487b7100000000000000000000000000000000000000000000000000000000600052602160045260246000fd5b81526020016004820160019054906101000a900460ff1660018111156104a4577f4e487b7100000000000000000000000000000000000000000000000000000000600052602160045260246000fd5b60018111156104dc577f4e487b7100000000000000000000000000000000000000000000000000000000600052602160045260246000fd5b8152602001600582015481526020016006820154815250509050919050565b610503610b82565b61050d6000610c00565b565b60008060009054906101000a900473ffffffffffffffffffffffffffffffffffffffff16905090565b6000635dfc0f008261054a919061141b565b905060008190506000600181111561058b577f4e487b7100000000000000000000000000000000000000000000000000000000600052602160045260246000fd5b8460018111156105c4577f4e487b7100000000000000000000000000000000000000000000000000000000600052602160045260246000fd5b14156105f05760006303c26700426105dc919061141b565b9050828110156105ea578091505b50610611565b600062905c4042610601919061141b565b90508281101561060f578091505b505b60016040518061010001604052808b81526020018a8152602001898152602001888152602001876002811115610670577f4e487b7100000000000000000000000000000000000000000000000000000000600052602160045260246000fd5b81526020018660018111156106ae577f4e487b7100000000000000000000000000000000000000000000000000000000600052602160045260246000fd5b81526020018581526020018381525090806001815401808255809150506001900390600052602060002090600702016000909190919091506000820151816000019080519060200190610702929190610d81565b50602082015181600101908051906020019061071f929190610d81565b50604082015181600201908051906020019061073c929190610d81565b506060820151816003019080519060200190610759929190610d81565b5060808201518160040160006101000a81548160ff021916908360028111156107ab577f4e487b7100000000000000000000000000000000000000000000000000000000600052602160045260246000fd5b021790555060a08201518160040160016101000a81548160ff02191690836001811115610801577f4e487b7100000000000000000000000000000000000000000000000000000000600052602160045260246000fd5b021790555060c0820151816005015560e0820151816006015550507fa7621c1cfae7fb43bc3b3587de91425620f9917fac012ecd13449c1528b4a8388989898989898988604051610859989796959493929190611291565b60405180910390a1505050505050505050565b610874610b82565b600073ffffffffffffffffffffffffffffffffffffffff168173ffffffffffffffffffffffffffffffffffffffff1614156108e4576040517f08c379a00000000000000000000000000000000000000000000000000000000081526004016108db9061132b565b60405180910390fd5b6108ed81610c00565b50565b6001818154811061090057600080fd5b906000526020600020906007020160009150905080600001805461092390611539565b80601f016020809104026020016040519081016040528092919081815260200182805461094f90611539565b801561099c5780601f106109715761010080835404028352916020019161099c565b820191906000526020600020905b81548152906001019060200180831161097f57829003601f168201915b5050505050908060010180546109b190611539565b80601f01602080910402602001604051908101604052809291908181526020018280546109dd90611539565b8015610a2a5780601f106109ff57610100808354040283529160200191610a2a565b820191906000526020600020905b815481529060010190602001808311610a0d57829003601f168201915b505050505090806002018054610a3f90611539565b80601f0160208091040260200160405190810160405280929190818152602001828054610a6b90611539565b8015610ab85780601f10610a8d57610100808354040283529160200191610ab8565b820191906000526020600020905b815481529060010190602001808311610a9b57829003601f168201915b505050505090806003018054610acd90611539565b80601f0160208091040260200160405190810160405280929190818152602001828054610af990611539565b8015610b465780601f10610b1b57610100808354040283529160200191610b46565b820191906000526020600020905b815481529060010190602001808311610b2957829003601f168201915b5050505050908060040160009054906101000a900460ff16908060040160019054906101000a900460ff16908060050154908060060154905088565b610b8a610cc4565b73ffffffffffffffffffffffffffffffffffffffff16610ba861050f565b73ffffffffffffffffffffffffffffffffffffffff1614610bfe576040517f08c379a0000000000000000000000000000000000000000000000000000000008152600401610bf59061134b565b60405180910390fd5b565b60008060009054906101000a900473ffffffffffffffffffffffffffffffffffffffff169050816000806101000a81548173ffffffffffffffffffffffffffffffffffffffff021916908373ffffffffffffffffffffffffffffffffffffffff1602179055508173ffffffffffffffffffffffffffffffffffffffff168173ffffffffffffffffffffffffffffffffffffffff167f8be0079c531659141344cd1fd0a4f28419497f9722a3daafe3b4186f6b6457e060405160405180910390a35050565b600033905090565b6040518061010001604052806060815260200160608152602001606081526020016060815260200160006002811115610d2e577f4e487b7100000000000000000000000000000000000000000000000000000000600052602160045260246000fd5b815260200160006001811115610d6d577f4e487b7100000000000000000000000000000000000000000000000000000000600052602160045260246000fd5b815260200160008152602001600081525090565b828054610d8d90611539565b90600052602060002090601f016020900481019282610daf5760008555610df6565b82601f10610dc857805160ff1916838001178555610df6565b82800160010185558215610df6579182015b82811115610df5578251825591602001919060010190610dda565b5b509050610e039190610e07565b5090565b5b80821115610e20576000816000905550600101610e08565b5090565b6000610e37610e32846113be565b61138d565b905082815260208101848484011115610e4f57600080fd5b610e5a8482856114f7565b509392505050565b600081359050610e7181611660565b92915050565b600081359050610e8681611677565b92915050565b600081359050610e9b81611687565b92915050565b600082601f830112610eb257600080fd5b8135610ec2848260208601610e24565b91505092915050565b600081359050610eda81611697565b92915050565b600060208284031215610ef257600080fd5b6000610f0084828501610e62565b91505092915050565b600080600080600080600060e0888a031215610f2457600080fd5b600088013567ffffffffffffffff811115610f3e57600080fd5b610f4a8a828b01610ea1565b975050602088013567ffffffffffffffff811115610f6757600080fd5b610f738a828b01610ea1565b965050604088013567ffffffffffffffff811115610f9057600080fd5b610f9c8a828b01610ea1565b955050606088013567ffffffffffffffff811115610fb957600080fd5b610fc58a828b01610ea1565b9450506080610fd68a828b01610e77565b93505060a0610fe78a828b01610e8c565b92505060c0610ff88a828b01610ecb565b91505092959891949750929550565b60006020828403121561101957600080fd5b600061102784828501610ecb565b91505092915050565b61103981611471565b82525050565b611048816114d3565b82525050565b611057816114d3565b82525050565b611066816114e5565b82525050565b611075816114e5565b82525050565b6000611086826113ee565b61109081856113f9565b93506110a0818560208601611506565b6110a981611627565b840191505092915050565b60006110bf826113ee565b6110c9818561140a565b93506110d9818560208601611506565b6110e281611627565b840191505092915050565b60006110fa60268361140a565b91507f4f776e61626c653a206e6577206f776e657220697320746865207a65726f206160008301527f64647265737300000000000000000000000000000000000000000000000000006020830152604082019050919050565b600061116060208361140a565b91507f4f776e61626c653a2063616c6c6572206973206e6f7420746865206f776e65726000830152602082019050919050565b60006101008301600083015184820360008601526111b1828261107b565b915050602083015184820360208601526111cb828261107b565b915050604083015184820360408601526111e5828261107b565b915050606083015184820360608601526111ff828261107b565b9150506080830151611214608086018261103f565b5060a083015161122760a086018261105d565b5060c083015161123a60c0860182611258565b5060e083015161124d60e0860182611258565b508091505092915050565b611261816114c9565b82525050565b611270816114c9565b82525050565b600060208201905061128b6000830184611030565b92915050565b60006101008201905081810360008301526112ac818b6110b4565b905081810360208301526112c0818a6110b4565b905081810360408301526112d481896110b4565b905081810360608301526112e881886110b4565b90506112f7608083018761104e565b61130460a083018661106c565b61131160c0830185611267565b61131e60e0830184611267565b9998505050505050505050565b60006020820190508181036000830152611344816110ed565b9050919050565b6000602082019050818103600083015261136481611153565b9050919050565b600060208201905081810360008301526113858184611193565b905092915050565b6000604051905081810181811067ffffffffffffffff821117156113b4576113b36115f8565b5b8060405250919050565b600067ffffffffffffffff8211156113d9576113d86115f8565b5b601f19601f8301169050602081019050919050565b600081519050919050565b600082825260208201905092915050565b600082825260208201905092915050565b6000611426826114c9565b9150611431836114c9565b9250827fffffffffffffffffffffffffffffffffffffffffffffffffffffffffffffffff038211156114665761146561156b565b5b828201905092915050565b600061147c826114a9565b9050919050565b600081905061149182611638565b919050565b60008190506114a48261164c565b919050565b600073ffffffffffffffffffffffffffffffffffffffff82169050919050565b6000819050919050565b60006114de82611483565b9050919050565b60006114f082611496565b9050919050565b82818337600083830152505050565b60005b83811015611524578082015181840152602081019050611509565b83811115611533576000848401525b50505050565b6000600282049050600182168061155157607f821691505b60208210811415611565576115646115c9565b5b50919050565b7f4e487b7100000000000000000000000000000000000000000000000000000000600052601160045260246000fd5b7f4e487b7100000000000000000000000000000000000000000000000000000000600052602160045260246000fd5b7f4e487b7100000000000000000000000000000000000000000000000000000000600052602260045260246000fd5b7f4e487b7100000000000000000000000000000000000000000000000000000000600052604160045260246000fd5b6000601f19601f8301169050919050565b600381106116495761164861159a565b5b50565b6002811061165d5761165c61159a565b5b50565b61166981611471565b811461167457600080fd5b50565b6003811061168457600080fd5b50565b6002811061169457600080fd5b50565b6116a0816114c9565b81146116ab57600080fd5b5056fea2646970667358221220663746bd874d6ac5bb11aed0bbe2fc735a0eeb4fc0e03328f9234d4d11234d8164736f6c63430008000033",
  "immutableReferences": {},
  "source": "// SPDX-License-Identifier: MIT\n\npragma solidity ^0.8.0;\n\nimport \"../node_modules/@openzeppelin/contracts/access/Ownable.sol\";\n\ncontract DriverRegistration is Ownable {\n    enum VehicleType {\n        privateVehicle,\n        commercialVehicle\n    }\n\n    enum Gender {\n        male,\n        female,\n        nonBinary\n    }\n\n    Driver[] public drivers;\n\n    struct Driver {\n        string name;\n        string drivingLicense;\n        string parentName;\n        string permanentAddress;\n        Gender gender;\n        VehicleType vehicleType;\n        uint256 dob;\n        uint256 validUntil;\n    }\n\n    event driverRegistered(\n        string _name,\n        string _drivingLicesnse,\n        string _parentName,\n        string _permanentAddress,\n        Gender _gender,\n        VehicleType _vehicleType,\n        uint256 _dob,\n        uint256 _validUntil\n    );\n\n    function register(\n        string memory _name,\n        string memory _drivingLicense,\n        string memory _parentName,\n        string memory _permanentAddress,\n        Gender _gender,\n        VehicleType _vehicleType,\n        uint256 _dob\n    ) public {\n        uint256 ageFiftyOn = _dob + (50 * 31536000);\n        uint256 _validUntil = ageFiftyOn;\n\n        if (_vehicleType == VehicleType.privateVehicle) {\n            uint256 twentyYearsOn = block.timestamp + (20 * 3153600);\n            if (twentyYearsOn < ageFiftyOn) _validUntil = twentyYearsOn;\n        } else {\n            uint256 threeYearsOn = block.timestamp + (3 * 3153600);\n            if (threeYearsOn < ageFiftyOn) _validUntil = threeYearsOn;\n        }\n\n        drivers.push(\n            Driver(\n                _name,\n                _drivingLicense,\n                _parentName,\n                _permanentAddress,\n                _gender,\n                _vehicleType,\n                _dob,\n                _validUntil\n            )\n        );\n\n        emit driverRegistered(\n            _name,\n            _drivingLicense,\n            _parentName,\n            _permanentAddress,\n            _gender,\n            _vehicleType,\n            _dob,\n            _validUntil\n        );\n    }\n\n    function getDriver(uint256 _id) public view returns (Driver memory) {\n        return drivers[_id];\n    }\n}\n",
  "sourcePath": "/home/abhyas/dev/Driver Registration DApp/contracts/DriverRegistration.sol",
  "compiler": {
    "name": "solc",
    "version": "0.8.0+commit.c7dfd78e.Emscripten.clang"
  },
  "schemaVersion": "3.4.10",
  "updatedAt": "2022-11-26T18:17:53.716Z",
  "networkType": "ethereum",
  "devdoc": {
    "kind": "dev",
    "methods": {
      "owner()": {
        "details": "Returns the address of the current owner."
      },
      "renounceOwnership()": {
        "details": "Leaves the contract without owner. It will not be possible to call `onlyOwner` functions anymore. Can only be called by the current owner. NOTE: Renouncing ownership will leave the contract without an owner, thereby removing any functionality that is only available to the owner."
      },
      "transferOwnership(address)": {
        "details": "Transfers ownership of the contract to a new account (`newOwner`). Can only be called by the current owner."
      }
    },
    "version": 1
  },
  "userdoc": {
    "kind": "user",
    "methods": {},
    "version": 1
  }
}