{
  "contractName": "DriverRegistration",
  "abi": [
    {
      "inputs": [],
      "stateMutability": "nonpayable",
      "type": "constructor"
    },
    {
      "anonymous": false,
      "inputs": [
        {
          "indexed": true,
          "internalType": "address",
          "name": "previousOwner",
          "type": "address"
        },
        {
          "indexed": true,
          "internalType": "address",
          "name": "newOwner",
          "type": "address"
        }
      ],
      "name": "OwnershipTransferred",
      "type": "event"
    },
    {
      "inputs": [
        {
          "internalType": "uint256",
          "name": "",
          "type": "uint256"
        }
      ],
      "name": "drivers",
      "outputs": [
        {
          "internalType": "string",
          "name": "name",
          "type": "string"
        },
        {
          "internalType": "string",
          "name": "parentName",
          "type": "string"
        },
        {
          "internalType": "string",
          "name": "permanentAddress",
          "type": "string"
        },
        {
          "internalType": "enum DriverRegistration.Gender",
          "name": "gender",
          "type": "uint8"
        },
        {
          "internalType": "enum DriverRegistration.VehicleType",
          "name": "vehicleType",
          "type": "uint8"
        },
        {
          "internalType": "uint256",
          "name": "dob",
          "type": "uint256"
        },
        {
          "internalType": "uint256",
          "name": "validUntil",
          "type": "uint256"
        }
      ],
      "stateMutability": "view",
      "type": "function"
    },
    {
      "inputs": [],
      "name": "owner",
      "outputs": [
        {
          "internalType": "address",
          "name": "",
          "type": "address"
        }
      ],
      "stateMutability": "view",
      "type": "function"
    },
    {
      "inputs": [],
      "name": "renounceOwnership",
      "outputs": [],
      "stateMutability": "nonpayable",
      "type": "function"
    },
    {
      "inputs": [
        {
          "internalType": "address",
          "name": "newOwner",
          "type": "address"
        }
      ],
      "name": "transferOwnership",
      "outputs": [],
      "stateMutability": "nonpayable",
      "type": "function"
    }
  ],
  "bytecode": "0x608060405234801561001057600080fd5b5061002d61002261003a60201b60201c565b61004260201b60201c565b6000600181905550610106565b600033905090565b60008060009054906101000a900473ffffffffffffffffffffffffffffffffffffffff169050816000806101000a81548173ffffffffffffffffffffffffffffffffffffffff021916908373ffffffffffffffffffffffffffffffffffffffff1602179055508173ffffffffffffffffffffffffffffffffffffffff168173ffffffffffffffffffffffffffffffffffffffff167f8be0079c531659141344cd1fd0a4f28419497f9722a3daafe3b4186f6b6457e060405160405180910390a35050565b610952806101156000396000f3fe608060405234801561001057600080fd5b506004361061004c5760003560e01c8063715018a6146100515780638da5cb5b1461005b578063f2fde38b14610079578063f79e545014610095575b600080fd5b6100596100cb565b005b6100636100df565b6040516100709190610671565b60405180910390f35b610093600480360381019061008e9190610504565b610108565b005b6100af60048036038101906100aa919061052d565b61018c565b6040516100c2979695949392919061068c565b60405180910390f35b6100d3610390565b6100dd600061040e565b565b60008060009054906101000a900473ffffffffffffffffffffffffffffffffffffffff16905090565b610110610390565b600073ffffffffffffffffffffffffffffffffffffffff168173ffffffffffffffffffffffffffffffffffffffff161415610180576040517f08c379a000000000000000000000000000000000000000000000000000000000815260040161017790610710565b60405180910390fd5b6101898161040e565b50565b6002818154811061019c57600080fd5b90600052602060002090600602016000915090508060000180546101bf90610825565b80601f01602080910402602001604051908101604052809291908181526020018280546101eb90610825565b80156102385780601f1061020d57610100808354040283529160200191610238565b820191906000526020600020905b81548152906001019060200180831161021b57829003601f168201915b50505050509080600101805461024d90610825565b80601f016020809104026020016040519081016040528092919081815260200182805461027990610825565b80156102c65780601f1061029b576101008083540402835291602001916102c6565b820191906000526020600020905b8154815290600101906020018083116102a957829003601f168201915b5050505050908060020180546102db90610825565b80601f016020809104026020016040519081016040528092919081815260200182805461030790610825565b80156103545780601f1061032957610100808354040283529160200191610354565b820191906000526020600020905b81548152906001019060200180831161033757829003601f168201915b5050505050908060030160009054906101000a900460ff16908060030160019054906101000a900460ff16908060040154908060050154905087565b6103986104d2565b73ffffffffffffffffffffffffffffffffffffffff166103b66100df565b73ffffffffffffffffffffffffffffffffffffffff161461040c576040517f08c379a000000000000000000000000000000000000000000000000000000000815260040161040390610730565b60405180910390fd5b565b60008060009054906101000a900473ffffffffffffffffffffffffffffffffffffffff169050816000806101000a81548173ffffffffffffffffffffffffffffffffffffffff021916908373ffffffffffffffffffffffffffffffffffffffff1602179055508173ffffffffffffffffffffffffffffffffffffffff168173ffffffffffffffffffffffffffffffffffffffff167f8be0079c531659141344cd1fd0a4f28419497f9722a3daafe3b4186f6b6457e060405160405180910390a35050565b600033905090565b6000813590506104e9816108ee565b92915050565b6000813590506104fe81610905565b92915050565b60006020828403121561051657600080fd5b6000610524848285016104da565b91505092915050565b60006020828403121561053f57600080fd5b600061054d848285016104ef565b91505092915050565b61055f8161076c565b82525050565b61056e816107ce565b82525050565b61057d816107e0565b82525050565b600061058e82610750565b610598818561075b565b93506105a88185602086016107f2565b6105b1816108b5565b840191505092915050565b60006105c960268361075b565b91507f4f776e61626c653a206e6577206f776e657220697320746865207a65726f206160008301527f64647265737300000000000000000000000000000000000000000000000000006020830152604082019050919050565b600061062f60208361075b565b91507f4f776e61626c653a2063616c6c6572206973206e6f7420746865206f776e65726000830152602082019050919050565b61066b816107c4565b82525050565b60006020820190506106866000830184610556565b92915050565b600060e08201905081810360008301526106a6818a610583565b905081810360208301526106ba8189610583565b905081810360408301526106ce8188610583565b90506106dd6060830187610565565b6106ea6080830186610574565b6106f760a0830185610662565b61070460c0830184610662565b98975050505050505050565b60006020820190508181036000830152610729816105bc565b9050919050565b6000602082019050818103600083015261074981610622565b9050919050565b600081519050919050565b600082825260208201905092915050565b6000610777826107a4565b9050919050565b600081905061078c826108c6565b919050565b600081905061079f826108da565b919050565b600073ffffffffffffffffffffffffffffffffffffffff82169050919050565b6000819050919050565b60006107d98261077e565b9050919050565b60006107eb82610791565b9050919050565b60005b838110156108105780820151818401526020810190506107f5565b8381111561081f576000848401525b50505050565b6000600282049050600182168061083d57607f821691505b6020821081141561085157610850610886565b5b50919050565b7f4e487b7100000000000000000000000000000000000000000000000000000000600052602160045260246000fd5b7f4e487b7100000000000000000000000000000000000000000000000000000000600052602260045260246000fd5b6000601f19601f8301169050919050565b600381106108d7576108d6610857565b5b50565b600281106108eb576108ea610857565b5b50565b6108f78161076c565b811461090257600080fd5b50565b61090e816107c4565b811461091957600080fd5b5056fea264697066735822122018e35366628895bd14612625549e0b3f5b19e5ac9b12801ad3f7dbcbbed67bbf64736f6c63430008000033",
  "immutableReferences": {},
  "source": "// SPDX-License-Identifier: MIT\n\npragma solidity ^0.8.0;\n\nimport \"../node_modules/@openzeppelin/contracts/access/Ownable.sol\";\n\ncontract DriverRegistration is Ownable{\n    uint256 driverCount;\n\n    enum VehicleType { privateVehicle, commercialVehicle }\n    enum Gender {male, female, nonBinary}\n\n    Driver[] public drivers;\n\n    struct Driver {\n        string name;\n        string parentName;\n        string permanentAddress;\n        Gender gender;\n        VehicleType vehicleType;\n        uint256 dob;\n        uint256 validUntil;\n    }\n\n    constructor() {\n        driverCount = 0;\n    }\n}\n",
  "sourcePath": "/home/abhyas/dev/Driver Registration DApp/contracts/DriverRegistration.sol",
  "compiler": {
    "name": "solc",
    "version": "0.8.0+commit.c7dfd78e.Emscripten.clang"
  },
  "schemaVersion": "3.4.10",
  "updatedAt": "2022-11-26T16:17:36.507Z",
  "devdoc": {
    "kind": "dev",
    "methods": {
      "owner()": {
        "details": "Returns the address of the current owner."
      },
      "renounceOwnership()": {
        "details": "Leaves the contract without owner. It will not be possible to call `onlyOwner` functions anymore. Can only be called by the current owner. NOTE: Renouncing ownership will leave the contract without an owner, thereby removing any functionality that is only available to the owner."
      },
      "transferOwnership(address)": {
        "details": "Transfers ownership of the contract to a new account (`newOwner`). Can only be called by the current owner."
      }
    },
    "version": 1
  },
  "userdoc": {
    "kind": "user",
    "methods": {},
    "version": 1
  }
}